{
  "contractName": "Survey",
  "abi": [
    {
      "anonymous": false,
      "inputs": [
        {
          "indexed": false,
          "internalType": "uint256",
          "name": "id",
          "type": "uint256"
        },
        {
          "indexed": false,
          "internalType": "string",
          "name": "survey1",
          "type": "string"
        },
        {
          "indexed": false,
          "internalType": "string",
          "name": "survey2",
          "type": "string"
        },
        {
          "indexed": false,
          "internalType": "string",
          "name": "survey3",
          "type": "string"
        },
        {
          "indexed": false,
          "internalType": "string",
          "name": "survey4",
          "type": "string"
        },
        {
          "indexed": false,
          "internalType": "string",
          "name": "survey5",
          "type": "string"
        },
        {
          "indexed": false,
          "internalType": "string",
          "name": "survey6",
          "type": "string"
        },
        {
          "indexed": false,
          "internalType": "address",
          "name": "author",
          "type": "address"
        }
      ],
      "name": "SurveyDeployed",
      "type": "event"
    },
    {
      "constant": true,
      "inputs": [],
      "name": "name",
      "outputs": [
        {
          "internalType": "string",
          "name": "",
          "type": "string"
        }
      ],
      "payable": false,
      "stateMutability": "view",
      "type": "function"
    },
    {
      "constant": true,
      "inputs": [],
      "name": "surveyCount",
      "outputs": [
        {
          "internalType": "uint256",
          "name": "",
          "type": "uint256"
        }
      ],
      "payable": false,
      "stateMutability": "view",
      "type": "function"
    },
    {
      "constant": true,
      "inputs": [
        {
          "internalType": "uint256",
          "name": "",
          "type": "uint256"
        }
      ],
      "name": "surveys",
      "outputs": [
        {
          "internalType": "uint256",
          "name": "id",
          "type": "uint256"
        },
        {
          "internalType": "string",
          "name": "survey1",
          "type": "string"
        },
        {
          "internalType": "string",
          "name": "survey2",
          "type": "string"
        },
        {
          "internalType": "string",
          "name": "survey3",
          "type": "string"
        },
        {
          "internalType": "string",
          "name": "survey4",
          "type": "string"
        },
        {
          "internalType": "string",
          "name": "survey5",
          "type": "string"
        },
        {
          "internalType": "string",
          "name": "survey6",
          "type": "string"
        },
        {
          "internalType": "address",
          "name": "author",
          "type": "address"
        }
      ],
      "payable": false,
      "stateMutability": "view",
      "type": "function"
    },
    {
      "constant": false,
      "inputs": [
        {
          "internalType": "string",
          "name": "_survey1",
          "type": "string"
        },
        {
          "internalType": "string",
          "name": "_survey2",
          "type": "string"
        },
        {
          "internalType": "string",
          "name": "_survey3",
          "type": "string"
        },
        {
          "internalType": "string",
          "name": "_survey4",
          "type": "string"
        },
        {
          "internalType": "string",
          "name": "_survey5",
          "type": "string"
        },
        {
          "internalType": "string",
          "name": "_survey6",
          "type": "string"
        }
      ],
      "name": "deploySurvey",
      "outputs": [],
      "payable": false,
      "stateMutability": "nonpayable",
      "type": "function"
    }
  ],
  "bytecode": "0x6080604052600080556040518060400160405280600681526020017f537572766579000000000000000000000000000000000000000000000000000081525060019080519060200190620000559291906200006a565b503480156200006357600080fd5b5062000119565b828054600181600116156101000203166002900490600052602060002090601f016020900481019282601f10620000ad57805160ff1916838001178555620000de565b82800160010185558215620000de579182015b82811115620000dd578251825591602001919060010190620000c0565b5b509050620000ed9190620000f1565b5090565b6200011691905b8082111562000112576000816000905550600101620000f8565b5090565b90565b61121d80620001296000396000f3fe608060405234801561001057600080fd5b506004361061004c5760003560e01c806306fdde031461005157806386e68b90146100d4578063c642831a146103d1578063e804f4c01461077f575b600080fd5b61005961079d565b6040518080602001828103825283818151815260200191508051906020019080838360005b8381101561009957808201518184015260208101905061007e565b50505050905090810190601f1680156100c65780820380516001836020036101000a031916815260200191505b509250505060405180910390f35b610100600480360360208110156100ea57600080fd5b810190808035906020019092919050505061083b565b604051808981526020018060200180602001806020018060200180602001806020018873ffffffffffffffffffffffffffffffffffffffff1673ffffffffffffffffffffffffffffffffffffffff16815260200187810387528e818151815260200191508051906020019080838360005b8381101561018c578082015181840152602081019050610171565b50505050905090810190601f1680156101b95780820380516001836020036101000a031916815260200191505b5087810386528d818151815260200191508051906020019080838360005b838110156101f25780820151818401526020810190506101d7565b50505050905090810190601f16801561021f5780820380516001836020036101000a031916815260200191505b5087810385528c818151815260200191508051906020019080838360005b8381101561025857808201518184015260208101905061023d565b50505050905090810190601f1680156102855780820380516001836020036101000a031916815260200191505b5087810384528b818151815260200191508051906020019080838360005b838110156102be5780820151818401526020810190506102a3565b50505050905090810190601f1680156102eb5780820380516001836020036101000a031916815260200191505b5087810383528a818151815260200191508051906020019080838360005b83811015610324578082015181840152602081019050610309565b50505050905090810190601f1680156103515780820380516001836020036101000a031916815260200191505b50878103825289818151815260200191508051906020019080838360005b8381101561038a57808201518184015260208101905061036f565b50505050905090810190601f1680156103b75780820380516001836020036101000a031916815260200191505b509e50505050505050505050505050505060405180910390f35b61077d600480360360c08110156103e757600080fd5b810190808035906020019064010000000081111561040457600080fd5b82018360208201111561041657600080fd5b8035906020019184600183028401116401000000008311171561043857600080fd5b91908080601f016020809104026020016040519081016040528093929190818152602001838380828437600081840152601f19601f8201169050808301925050505050505091929192908035906020019064010000000081111561049b57600080fd5b8201836020820111156104ad57600080fd5b803590602001918460018302840111640100000000831117156104cf57600080fd5b91908080601f016020809104026020016040519081016040528093929190818152602001838380828437600081840152601f19601f8201169050808301925050505050505091929192908035906020019064010000000081111561053257600080fd5b82018360208201111561054457600080fd5b8035906020019184600183028401116401000000008311171561056657600080fd5b91908080601f016020809104026020016040519081016040528093929190818152602001838380828437600081840152601f19601f820116905080830192505050505050509192919290803590602001906401000000008111156105c957600080fd5b8201836020820111156105db57600080fd5b803590602001918460018302840111640100000000831117156105fd57600080fd5b91908080601f016020809104026020016040519081016040528093929190818152602001838380828437600081840152601f19601f8201169050808301925050505050505091929192908035906020019064010000000081111561066057600080fd5b82018360208201111561067257600080fd5b8035906020019184600183028401116401000000008311171561069457600080fd5b91908080601f016020809104026020016040519081016040528093929190818152602001838380828437600081840152601f19601f820116905080830192505050505050509192919290803590602001906401000000008111156106f757600080fd5b82018360208201111561070957600080fd5b8035906020019184600183028401116401000000008311171561072b57600080fd5b91908080601f016020809104026020016040519081016040528093929190818152602001838380828437600081840152601f19601f820116905080830192505050505050509192919290505050610c33565b005b61078761113d565b6040518082815260200191505060405180910390f35b60018054600181600116156101000203166002900480601f0160208091040260200160405190810160405280929190818152602001828054600181600116156101000203166002900480156108335780601f1061080857610100808354040283529160200191610833565b820191906000526020600020905b81548152906001019060200180831161081657829003601f168201915b505050505081565b6002602052806000526040600020600091509050806000015490806001018054600181600116156101000203166002900480601f0160208091040260200160405190810160405280929190818152602001828054600181600116156101000203166002900480156108ed5780601f106108c2576101008083540402835291602001916108ed565b820191906000526020600020905b8154815290600101906020018083116108d057829003601f168201915b505050505090806002018054600181600116156101000203166002900480601f01602080910402602001604051908101604052809291908181526020018280546001816001161561010002031660029004801561098b5780601f106109605761010080835404028352916020019161098b565b820191906000526020600020905b81548152906001019060200180831161096e57829003601f168201915b505050505090806003018054600181600116156101000203166002900480601f016020809104026020016040519081016040528092919081815260200182805460018160011615610100020316600290048015610a295780601f106109fe57610100808354040283529160200191610a29565b820191906000526020600020905b815481529060010190602001808311610a0c57829003601f168201915b505050505090806004018054600181600116156101000203166002900480601f016020809104026020016040519081016040528092919081815260200182805460018160011615610100020316600290048015610ac75780601f10610a9c57610100808354040283529160200191610ac7565b820191906000526020600020905b815481529060010190602001808311610aaa57829003601f168201915b505050505090806005018054600181600116156101000203166002900480601f016020809104026020016040519081016040528092919081815260200182805460018160011615610100020316600290048015610b655780601f10610b3a57610100808354040283529160200191610b65565b820191906000526020600020905b815481529060010190602001808311610b4857829003601f168201915b505050505090806006018054600181600116156101000203166002900480601f016020809104026020016040519081016040528092919081815260200182805460018160011615610100020316600290048015610c035780601f10610bd857610100808354040283529160200191610c03565b820191906000526020600020905b815481529060010190602001808311610be657829003601f168201915b5050505050908060070160009054906101000a900473ffffffffffffffffffffffffffffffffffffffff16905088565b6000865111610c4157600080fd5b6000855111610c4f57600080fd5b6000845111610c5d57600080fd5b6000835111610c6b57600080fd5b6000825111610c7957600080fd5b6000815111610c8757600080fd5b600073ffffffffffffffffffffffffffffffffffffffff163373ffffffffffffffffffffffffffffffffffffffff161415610cc157600080fd5b600080815480929190600101919050555060405180610100016040528060005481526020018781526020018681526020018581526020018481526020018381526020018281526020013373ffffffffffffffffffffffffffffffffffffffff168152506002600080548152602001908152602001600020600082015181600001556020820151816001019080519060200190610d5e929190611143565b506040820151816002019080519060200190610d7b929190611143565b506060820151816003019080519060200190610d98929190611143565b506080820151816004019080519060200190610db5929190611143565b5060a0820151816005019080519060200190610dd2929190611143565b5060c0820151816006019080519060200190610def929190611143565b5060e08201518160070160006101000a81548173ffffffffffffffffffffffffffffffffffffffff021916908373ffffffffffffffffffffffffffffffffffffffff1602179055509050507f608d5d842e3054c974b559730331387886f8a6d6d1c4906e3b0c0d1360a9188260005487878787878733604051808981526020018060200180602001806020018060200180602001806020018873ffffffffffffffffffffffffffffffffffffffff1673ffffffffffffffffffffffffffffffffffffffff16815260200187810387528e818151815260200191508051906020019080838360005b83811015610ef1578082015181840152602081019050610ed6565b50505050905090810190601f168015610f1e5780820380516001836020036101000a031916815260200191505b5087810386528d818151815260200191508051906020019080838360005b83811015610f57578082015181840152602081019050610f3c565b50505050905090810190601f168015610f845780820380516001836020036101000a031916815260200191505b5087810385528c818151815260200191508051906020019080838360005b83811015610fbd578082015181840152602081019050610fa2565b50505050905090810190601f168015610fea5780820380516001836020036101000a031916815260200191505b5087810384528b818151815260200191508051906020019080838360005b83811015611023578082015181840152602081019050611008565b50505050905090810190601f1680156110505780820380516001836020036101000a031916815260200191505b5087810383528a818151815260200191508051906020019080838360005b8381101561108957808201518184015260208101905061106e565b50505050905090810190601f1680156110b65780820380516001836020036101000a031916815260200191505b50878103825289818151815260200191508051906020019080838360005b838110156110ef5780820151818401526020810190506110d4565b50505050905090810190601f16801561111c5780820380516001836020036101000a031916815260200191505b509e50505050505050505050505050505060405180910390a1505050505050565b60005481565b828054600181600116156101000203166002900490600052602060002090601f016020900481019282601f1061118457805160ff19168380011785556111b2565b828001600101855582156111b2579182015b828111156111b1578251825591602001919060010190611196565b5b5090506111bf91906111c3565b5090565b6111e591905b808211156111e15760008160009055506001016111c9565b5090565b9056fea265627a7a723158201916e3bd3c9bd0cd1ed9e8313ade00885a09f73ef24b6216c681c9790c45dba264736f6c63430005100032",
  "source": "// SPDX-License-Identifier: MIT\r\npragma solidity >=0.4.21 <0.9.0;\r\n\r\ncontract Survey {\r\n  uint public surveyCount = 0;\r\n  string public name = \"Survey\";\r\n  mapping(uint => AddSurvey) public surveys;\r\n  uint lastUpdated;\r\n  \r\n\r\n  struct AddSurvey {\r\n    uint id;\r\n    string survey1;\r\n    string survey2;\r\n    string survey3;\r\n    string survey4;\r\n    string survey5;\r\n    string survey6;\r\n    address author;\r\n  }\r\n\r\n  event SurveyDeployed(\r\n    uint id,\r\n    string survey1,\r\n    string survey2,\r\n    string survey3,\r\n    string survey4,\r\n    string survey5,\r\n    string survey6,\r\n    address author\r\n    \r\n  );\r\n\r\n  function deploySurvey(string memory _survey1, string memory _survey2,string memory _survey3, string memory _survey4, string memory _survey5, string memory _survey6) public {\r\n    \r\n    require(bytes(_survey1).length > 0);\r\n    require(bytes(_survey2).length > 0);\r\n    require(bytes(_survey3).length > 0);\r\n    require(bytes(_survey4).length > 0);\r\n    require(bytes(_survey5).length > 0);\r\n    require(bytes(_survey6).length > 0);\r\n    require(msg.sender!=address(0));\r\n        \r\n    // Increment product count\r\n    surveyCount ++;\r\n    // Add product to the contract\r\n    surveys[surveyCount] = AddSurvey(surveyCount, _survey1, _survey2, _survey3, _survey4, _survey5, _survey6, msg.sender);\r\n    // Trigger an event\r\n    emit SurveyDeployed(surveyCount, _survey1, _survey2, _survey3, _survey4, _survey5, _survey6, msg.sender);\r\n  }\r\n}\r\n",
  "sourcePath": "F:\\BlockChain\\Coinswitch\\surveysc\\contracts\\Survey.sol",
  "compiler": {
    "name": "solc",
    "version": "0.5.16+commit.9c3226ce.Emscripten.clang"
  },
  "schemaVersion": "3.0.23",
  "updatedAt": "2022-08-06T05:15:02.544Z",
  "networkType": "ethereum",
  "devdoc": {
    "methods": {}
  },
  "userdoc": {
    "methods": {}
  }
}